:020000000000fe
:02000100006499
:0200020000c933
:02000300012cce
:02000400018f6a
:0200050001f107
:020006000252a4
:0200070002b243
:02000800030fe4
:02000900036b87
:02000a0003c52c
:02000b00041cd3
:02000c0004717d
:02000d0004c32a
:02000e000513d8
:02000f00055f8b
:0200100005a742
:0200110005edfb
:02001200062eb8
:02001300066c79
:0200140006a63e
:0200150006dc07
:02001600070dd4
:02001700073aa6
:0200180007637c
:02001900078757
:02001a0007a736
:02001b0007c21a
:02001c0007d803
:02001d0007e9f1
:02001e0007f5e4
:02001f0007fddb
:0200200007ffd8
:0200210007fdd9
:0200220007f5e0
:0200230007e9eb
:0200240007d8fb
:0200250007c210
:0200260007a72a
:02002700078749
:0200280007636c
:02002900073a94
:02002a00070dc0
:02002b0006dcf1
:02002c0006a626
:02002d00066c5f
:02002e00062e9c
:02002f0005eddd
:0200300005a722
:02003100055f69
:020032000513b4
:0200330004c304
:02003400047155
:02003500041ca9
:0200360003c500
:02003700036b59
:02003800030fb4
:0200390002b211
:02003a00025270
:02003b0001f1d1
:02003c00018f32
:02003d00012c94
:02003e0000c9f7
:02003f0000645b
:020040000000be
:020041000f9c12
:020042000f3776
:020043000ed4d9
:020044000e713b
:020045000e0f9c
:020046000daefd
:020047000d4e5c
:020048000cf1b9
:020049000c9514
:02004a000c3b6d
:02004b000be4c4
:02004c000b8f18
:02004d000b3d69
:02004e000aedb9
:02004f000aa104
:020050000a594b
:020051000a1390
:0200520009d2d1
:0200530009940e
:02005400095a47
:0200550009247c
:0200560008f3ad
:0200570008c6d9
:02005800089d01
:02005900087924
:02005a00085943
:02005b00083e5d
:02005c00082872
:02005d00081782
:02005e00080b8d
:02005f00080394
:02006000080195
:02006100080392
:02006200080b89
:0200630008177c
:0200640008286a
:02006500083e53
:02006600085937
:02006700087916
:02006800089df1
:0200690008c6c7
:02006a0008f399
:02006b00092466
:02006c00095a2f
:02006d000994f4
:02006e0009d2b5
:02006f000a1372
:020070000a592b
:020071000aa1e2
:020072000aed95
:020073000b3d43
:020074000b8ff0
:020075000be49a
:020076000c3b41
:020077000c95e6
:020078000cf189
:020079000d4e2a
:02007a000daec9
:02007b000e0f66
:02007c000e7103
:02007d000ed49f
:02007e000f373a
:02007f000f9cd4
:00000001FF
